:100000000C948B000C94AC000C94AC000C94AC00E1
:100010000C94AC000C94AC000C94AC000C94AC00B0
:100020000C94AC000C94AC000C94AC000C94AC00A0
:100030000C94AC000C94AC000C94AC000C94AC0090
:100040000C94AC000C94AC000C94AC000C94AC0080
:100050000C94AC000C94AC000C94AC000C94AC0070
:100060000C94AC000C94AC000C94AC000C94AC0060
:100070000C94AC000C94AC000C94AC000C94AC0050
:100080000C94AC000C94AC000C94AC000C94AC0040
:100090000C94AC000C94AC000C94AC000C94AC0030
:1000A0000C94AC000C94AC000C94AC000C94AC0020
:1000B0000C94AC000C94AC000C94AC000C94AC0010
:1000C0000C94AC000C94AC000C94AC000C94AC0000
:1000D0000C94AC000C94AC000C94AC000C94AC00F0
:1000E0000C94AC00084AD73B3BCE016E84BCBFFDEC
:1000F000C12F3D6C74319ABD56833DDA3D00C77FF8
:1001000011BED9E4BB4C3E916BAAAABE0000008090
:100110003F000C94390111241FBECFEFD1E2DEBFA6
:10012000CDBF00E00CBF12E0A0E0B2E0E6E9F8E1EC
:1001300000E00BBF02C007900D92AA3CB107D9F7AF
:1001400022E0AAECB2E001C01D92A03FB207E1F7A5
:100150000E9449030C94490C0C940000AF92BF928A
:10016000CF92DF92EF92FF920F931F93CF93DF9383
:1001700064EFA62EBB24B39400E010E0E12CF12C38
:10018000C12CD12C63E488E60E94AD02C82F64E440
:1001900088E60E94AD022C2F30E0322F2227282B38
:1001A000C20ED31E65E488E60E94AD02C82F66E445
:1001B00088E60E94AD022C2F30E0322F2227282B18
:1001C000E20EF31E67E488E60E94AD02C82F68E4E1
:1001D00088E60E94AD022C2F30E0322F2227282BF8
:1001E000020F131F81E0A81AB10861F6C4EFD1E035
:1001F000C601BE010E942006072E000C880B990B39
:100200000E94D10760930C0270930D0280930E023E
:1002100090930F02C701BE010E942006072E000C1A
:10022000880B990B0E94D107609308027093090212
:1002300080930A0290930B02C801BE010E9420061F
:10024000072E000C880B990B0E94D10760930402C3
:10025000709305028093060290930702DF91CF917D
:100260001F910F91FF90EF90DF90CF90BF90AF90D4
:1002700008958A3049F09091C00095FFFCCF80939B
:10028000C60080E090E008959091C00095FFFCCFFB
:100290009DE09093C600EFCF9093C5008093C4007B
:1002A00086E08093C20088E98093C1000895909110
:1002B000C00095FFFCCF8093C60008958091C000D8
:1002C00087FFFCCF8091C60008958091C000881FF1
:1002D0008827881F0895FC012081222351F0319640
:1002E0009091C00095FFFCCF2093C6002191211171
:1002F000F7CF089580E192E09093ED028093EC02B5
:100300001092C50082E38093C40086E08093C2000F
:1003100088E98093C1000895599A589AE9EBF0E072
:1003200080818E7F808380818D7F808388E480932D
:10033000B80085E48093BC00089594EA9093BC00D3
:100340009091BC0097FFFCCF9091B900987F9830B6
:10035000C9F4880F682B6093BB0084E88093BC00CD
:100360008091B900887F8032A9F08091B900887FA0
:10037000803381F08091BC0087FFFCCF8091B90071
:10038000887F08958FE792E00E9472098091B900FA
:10039000887F089582E992E00E9472098091B900F5
:1003A000887F089594EA9093BC009091BC0097FFD9
:1003B000FCCF9091B900987F9031C9F4880F682BD9
:1003C0006093BB0084E88093BC008091B900887F73
:1003D0008032A9F08091B900887F803381F08091CC
:1003E000BC0087FFFCCF8091B900887F08958FE71C
:1003F00092E00E9472098091B900887F089585EA91
:1004000092E00E9472098091B900887F08958093DC
:10041000BB0084E88093BC008091BC0087FFFCCFC8
:100420008091B900887F883221F088EB92E00E94A9
:1004300072098091B900887F08951F93CF93DF934D
:100440001F92CDB7DEB7142F94EA9093BC00909121
:10045000BC0097FFFCCF9091B900987F983009F0CD
:100460004EC090E0880F991F8093BB0084E8809372
:10047000BC008091B900887F803209F449C0809126
:10048000B900887F803309F443C08091BC0087FFA6
:10049000FCCF8091B9006093BB0084E88093BC00DE
:1004A0008091BC0087FFFCCF8091B900887F8832A3
:1004B00021F088EB92E00E9472098091B9001093BC
:1004C000BB0084E88093BC008091BC0087FFFCCF18
:1004D0008091B900887F883221F088EB92E00E94F9
:1004E00072098091B90084E98093BC008091BC00BE
:1004F00084FDFCCF0F90DF91CF911F9108958FE77E
:1005000092E069830E9472098091B9006981C3CF2A
:1005100082E992E069830E9472098091B900698141
:10052000BACF84EC8093BC008091BC0087FFFCCFE5
:100530008091BB00089584E88093BC008091BC004A
:1005400087FFFCCF8091BB00089584E98093BC00B5
:100550008091BC0084FDFCCF08951F93CF93DF935F
:100560001F92CDB7DEB7182F84EA8093BC0090911C
:10057000BC0097FFFCCF8091B900887F883009F0DC
:100580006FC0812F90E0880F991F8093BB0084E893
:100590008093BC008091B900887F803209F469C0E3
:1005A0008091B900887F803309F463C09091BC00CA
:1005B00097FFFCCF8091B9006093BB0084E88093E3
:1005C000BC009091BC0097FFFCCF8091B900887F60
:1005D000883221F088EB92E00E9472098091B90084
:1005E00084EA8093BC009091BC0097FFFCCF80917F
:1005F000B900887F803169F5812F880F81608093F1
:10060000BB0084E88093BC008091B900887F803271
:10061000C9F18091B900887F8033A1F18091BC003D
:1006200087FFFCCF8091B90084E88093BC00809163
:10063000BC0087FFFCCF8091BB0094E99093BC0085
:100640009091BC0094FDFCCF0F90DF91CF911F9152
:1006500008958FE792E00E9472098091B900E4CF7B
:100660008FE792E069830E9472098091B9006981E5
:10067000A3CF82E992E069830E9472098091B90058
:1006800069819ACF85EA92E00E9472098091B9004F
:10069000CBCF2F923F924F925F926F927F928F9229
:1006A0009F92AF92BF92CF92DF92EF92FF920F9301
:1006B0001F93CF93DF93CDB7DEB76C970FB6F89447
:1006C000DEBF0FBECDBF0E947A010E948C0140E0C8
:1006D0006BE688E60E941D020E94AE0008E813E166
:1006E0006BE388E60E94AD02F82E6CE388E60E9478
:1006F000AD022F2D30E0322F2227282B3093E3023A
:100700002093E2026DE388E60E94AD02F82E6EE3CC
:1007100088E60E94AD022F2D30E0322F2227282BB1
:100720003093D3022093D2026FE388E60E94AD0299
:10073000F82E60E488E60E94AD022F2D30E0322FC3
:100740002227282B3093D9022093D80261E488E62F
:100750000E94AD02F82E62E488E60E94AD022F2DC1
:1007600030E0322F2227282B3093DD022093DC0249
:1007700063E488E60E94AD02F82E64E488E60E94F5
:10078000AD022F2D30E0322F2227282B3093CB02C1
:100790002093CA0265E488E60E94AD02F82E66E462
:1007A00088E60E94AD022F2D30E0322F2227282B21
:1007B0003093DB022093DA0267E488E60E94AD0200
:1007C000B82E68E488E60E94AD02A82EC090000210
:1007D000D0900102E0900202F09003026091CA0200
:1007E0007091CB0280E090E00E94CF0720910C0234
:1007F00030910D0240910E0250910F020E94480666
:10080000A70196010E9427070E94A00769837A83A7
:100810008B839C8329813A813093CB022093CA0237
:100820006091DA027091DB0280E090E00E94CF07D5
:10083000209108023091090240910A0250910B0266
:100840000E944806A70196010E9427070E94A00760
:100850006D837E838F8398878D819E819093DB0249
:100860008093DA026A2D70E07B2980E090E00E949C
:10087000CF07209104023091050240910602509169
:1008800007020E944806A70196010E9427070E94BE
:10089000A00769877A878B879C87A985BA85B093DB
:1008A000E102A093E002E091D202F091D302FE8730
:1008B000ED87BF0180E090E00E94CF076B017C01D3
:1008C0002090D8023090D902B10180E090E00E94DF
:1008D000CF079B01AC010E948C082B013C01A701B2
:1008E0009601C701B6010E948C08A30192010E94E3
:1008F00049060E94FF089B01AC018091E2029091A1
:10090000E3029C8F8B8FBC0180E090E02F8B388FAF
:10091000498F5A8F0E94CF074B015C012F89388D78
:10092000498D5A8D0E94C80620E030E044E353E42C
:100930000E948C082BED3FE049E450E40E94270719
:100940006F87788B898B9A8B6093E6027093E702AE
:100950008093E8029093E902A5019401C501B401D6
:100960000E948C089B01AC01C301B2010E944906A0
:100970000E94FF089B01AC01C701B6010E94C80696
:1009800020E030E044E353E40E948C082BED3FE08C
:1009900049E450E40E9427074B015C016093D402B4
:1009A0007093D5028093D6029093D7026091E402AF
:1009B0007091E502072E000C880B990B0E94D1075D
:1009C0006B017C01A981BA81BD0180E090E00E94A9
:1009D000CF0720E030E040EF51E40E9427079B0161
:1009E000AC01C701B6010E9449060E9499076B013C
:1009F0007C016091CC027091CD02072E000C880B17
:100A0000990B0E94D1072B013C01ED81FE81BF01B2
:100A100080E090E00E94CF0720E030E040EF51E41A
:100A20000E9427079B01AC01C301B2010E94480646
:100A30000E9499076B8B7C8B8D8B9E8B6091DE0265
:100A40007091DF02072E000C880B990B0E94D107D2
:100A50002B013C0129853A85B90180E090E00E9494
:100A6000CF0720E030E040EF51E40E9427079B01D0
:100A7000AC01C301B2010E9449060E94990770931C
:100A8000DF026093DE02B601DD0C880B990B0E9439
:100A9000D1072FE832EC45E75FE30E948C086B0139
:100AA0007C012AE037ED43E25DE3C501B4010E9419
:100AB0008C089B01AC01C701B6010E9449060E9447
:100AC00099077093E5026093E402AB89BC89BD018C
:100AD000BB0F880B990B0E94D1072FE832EC45E73A
:100AE0005FE30E948C086B017C012AE037ED43E252
:100AF0005DE36F85788989899A890E948C089B01BA
:100B0000AC01C701B6010E9449060E949907709383
:100B1000CD026093CC02BA85BF93E985EF93FE8145
:100B2000FF932D812F933A813F9389818F93609119
:100B3000DC027091DD02072E000C880B990B0E94DD
:100B4000D10720E030E04AEA53E40E94270728EB6F
:100B50003EE142E152E40E9449060E9499077F93D8
:100B60006F933F922F929E859F93AD85AF93BC8DDF
:100B7000BF93EB8DEF93A0E2B2E0BF93AF930E94DF
:100B800058098091D1028F938091D0028F938091E8
:100B9000CF028F938091CE028F938091E9028F9341
:100BA0008091E8028F938091E7028F938091E60213
:100BB0008F938091D7028F938091D6028F938091EB
:100BC000D5028F938091D4028F93A3E7B2E0BF93B5
:100BD000AF930E9458098AE090E00E946C098AE075
:100BE00090E00E946C09FFEF21EE34E0F1502040CC
:100BF0003040E1F700C00000015011090FB6F89431
:100C0000DEBF0FBECDBF09F06BCD80E090E06C96EB
:100C10000FB6F894DEBF0FBECDBFDF91CF911F910D
:100C20000F91FF90EF90DF90CF90BF90AF909F908B
:100C30008F907F906F905F904F903F902F9008958E
:100C400097FB072E16F4009407D077FD09D00E9479
:100C5000340607FC05D03EF4909581959F4F08958A
:100C6000709561957F4F0895AA1BBB1B51E107C08A
:100C7000AA1FBB1FA617B70710F0A61BB70B881F2C
:100C8000991F5A95A9F780959095BC01CD010895BB
:100C90005058BB27AA270E9460060C944A080E945D
:100CA0003C0838F00E94430820F039F49F3F19F4C3
:100CB00026F40C9412080EF4E095E7FB0C940C0853
:100CC000E92F0E945B0858F3BA176207730784077D
:100CD000950720F079F4A6F50C947D080EF4E095C4
:100CE0000B2EBA2FA02D0B01B90190010C01CA01E6
:100CF000A0011124FF27591B99F0593F50F4503E91
:100D000068F11A16F040A22F232F342F4427585F82
:100D1000F3CF469537952795A795F0405395C9F79A
:100D20007EF41F16BA0B620B730B840BBAF0915052
:100D3000A1F0FF0FBB1F661F771F881FC2F70EC0F1
:100D4000BA0F621F731F841F48F4879577956795C4
:100D5000B795F7959E3F08F0B0CF9395880F08F0B0
:100D60009927EE0F9795879508950E943C0860F0AB
:100D700080E891E009F49EEF0E94430828F040E8E3
:100D800051E071F45EEF0CC00C9412080C947D08D5
:100D9000E92FE0780E945B0840F3092E052AB1F3A1
:100DA000261737074807590738F00E2E07F8E025B1
:100DB00069F0E025E0640AC0EF6307F8009407FAE1
:100DC000DB01B9019D01DC01CA01AD01EF930E9475
:100DD0003E070E944A080E94F8065F91552339F0A9
:100DE0002BED3FE049E450FD49EC0C944906089591
:100DF000DF93DD27B92FBF7740E85FE316161706AC
:100E000048075B0718F4D92F0E9484089F938F939B
:100E10007F936F930E943F09E4EEF0E00E94150873
:100E20000E944A082F913F914F915F910E949F0825
:100E3000DD2351F09058A2EA2AED3FE049EC5FE350
:100E4000D0785D270E946006DF910C944A080E94CA
:100E50003B070C944A080E94430858F00E943C0843
:100E600040F029F45F3F29F00C940C0851110C94C8
:100E70007E080C9412080E945B0868F39923B1F372
:100E8000552391F3951B550BBB27AA2762177307B0
:100E9000840738F09F5F5F4F220F331F441FAA1F44
:100EA000A9F335D00E2E3AF0E0E832D09150504000
:100EB000E695001CCAF72BD0FE2F29D0660F771FAE
:100EC000881FBB1F261737074807AB07B0E809F094
:100ED000BB0B802DBF01FF2793585F4F3AF09E3F19
:100EE000510578F00C940C080C947E085F3FE4F3F5
:100EF000983ED4F3869577956795B795F7959F5F5C
:100F0000C9F7880F911D9695879597F90895E1E0A7
:100F1000660F771F881FBB1F621773078407BA0706
:100F200020F0621B730B840BBA0BEE1F88F7E09561
:100F300008950E94A0076894B1110C947E0808954A
:100F40000E94630888F09F5798F0B92F9927B751EE
:100F5000B0F0E1F0660F771F881F991F1AF0BA955D
:100F6000C9F714C0B13091F00E947D08B1E0089536
:100F70000C947D08672F782F8827B85F39F0B93F28
:100F8000CCF3869577956795B395D9F73EF4909510
:100F90008095709561957F4F8F4F9F4F0895E8948E
:100FA00009C097FB3EF490958095709561957F4FB1
:100FB0008F4F9F4F9923A9F0F92F96E9BB2793955F
:100FC000F695879577956795B795F111F8CFFAF46F
:100FD000BB0F11F460FF1BC06F5F7F4F8F4F9F4FA0
:100FE00016C0882311F096E911C0772321F09EE8FE
:100FF000872F762F05C0662371F096E8862F70E064
:1010000060E02AF09A95660F771F881FDAF7880F3D
:101010009695879597F9089597F99F6780E870E00E
:1010200060E008959FEF80EC0895DF93CF931F93C6
:101030000F93FF92EF92DF927B018C01689406C0C0
:10104000DA2EEF010E949F08FE01E894A5912591F8
:10105000359145915591A6F3EF010E946006FE017E
:101060009701A801DA9469F7DF90EF90FF900F9154
:101070001F91CF91DF91089500240A941616170648
:1010800018060906089500240A9412161306140679
:1010900005060895092E0394000C11F4882352F0DC
:1010A000BB0F40F4BF2B11F460FF04C06F5F7F4F94
:1010B0008F4F9F4F089557FD9058440F551F59F07B
:1010C0005F3F71F04795880F97FB991F61F09F3F35
:1010D00079F087950895121613061406551FF2CF5E
:1010E0004695F1DF08C0161617061806991FF1CFAE
:1010F00086957105610508940895E894BB276627D5
:101100007727CB0197F908959B01AC0160E070E06F
:1011100080E89FE30C9427070E949F080C944A08DC
:101120000E943C0838F00E94430820F0952311F0FB
:101130000C940C080C94120811240C947E080E9444
:101140005B0870F3959FC1F3950F50E0551F629FA8
:10115000F001729FBB27F00DB11D639FAA27F00D10
:10116000B11DAA1F649F6627B00DA11D661F829F37
:101170002227B00DA11D621F739FB00DA11D621F1C
:10118000839FA00D611D221F749F3327A00D611D39
:10119000231F849F600D211D822F762F6A2F11241B
:1011A0009F5750409AF0F1F088234AF0EE0FFF1F4E
:1011B000BB1F661F771F881F91505040A9F79E3FA5
:1011C000510580F00C940C080C947E085F3FE4F30A
:1011D000983ED4F3869577956795B795F795E795FB
:1011E0009F5FC1F7FE2B880F911D9695879597F904
:1011F000089519F416F40C9412080C9443090E94F3
:101200006308B8F39923C9F3B6F39F57550B87FFCB
:101210000E9451090024A0E640EA900180585695AA
:10122000979528F4805C660F771F881F20F026179B
:101230003707480730F4621B730B840B20293129D0
:101240004A2BA69517940794202531254A2758F74D
:10125000660F771F881F20F026173707480730F4DE
:10126000620B730B840B200D311D411DA09581F77E
:10127000B901842F9158880F9695879508959B0101
:10128000AC010C948C089F3F31F0915020F487956D
:1012900077956795B795880F911D9695879597F9DE
:1012A000089591505040660F771F881FD2F7089518
:1012B000CF93DF93CDB7DEB7AE014A5F5F4FFA0140
:1012C00061917191AF018091EC029091ED020E94C9
:1012D000A209DF91CF9108956091EC027091ED0227
:1012E0000C94B30B0F931F93CF93DF93E091EC0219
:1012F000F091ED02238121FF1BC08C01D0E0C0E002
:10130000F80181918F016091EC027091ED02DB0197
:101310001896ED91FC911997882331F01995892B36
:1013200079F3DFEFCFEFECCF8AE01995892B19F035
:101330008FEF9FEF02C08D2F9C2FDF91CF911F91D8
:101340000F9108952F923F924F925F926F927F92EA
:101350008F929F92AF92BF92CF92DF92EF92FF92C5
:101360000F931F93CF93DF93CDB7DEB72C970FB6B4
:10137000F894DEBF0FBECDBF7C016B018A01FC017A
:1013800017821682838181FFBDC1CE0101964C0177
:10139000F7019381F60193FD859193FF81916F0190
:1013A000882309F4ABC1853239F493FD859193FF0D
:1013B00081916F01853229F4B70190E00E94B30B4F
:1013C000E7CF512C312C20E02032A0F48B3269F091
:1013D00030F4803259F0833269F420612CC08D32B0
:1013E00039F0803339F4216026C02260246023C0A4
:1013F000286021C027FD27C030ED380F3A3078F43F
:1014000026FF06C0FAE05F9E300D1124532E13C054
:101410008AE0389E300D1124332E20620CC08E32AB
:1014200021F426FD6BC1206406C08C3611F42068BF
:1014300002C0883641F4F60193FD859193FF8191B6
:101440006F018111C1CF982F9F7D9554933028F45F
:101450000C5F1F4FFFE3F9830DC0833631F08337F4
:1014600071F0833509F05BC022C0F8018081898367
:101470000E5F1F4F44244394512C540115C0380172
:10148000F2E06F0E711CF801A080B18026FF03C04E
:10149000652D70E002C06FEF7FEFC5012C870E94C1
:1014A000A80B2C0183012C852F77222E17C0380121
:1014B000F2E06F0E711CF801A080B18026FF03C01E
:1014C000652D70E002C06FEF7FEFC5012C870E9491
:1014D0009D0B2C012C852068222E830123FC1BC030
:1014E000832D90E048165906B0F4B70180E290E0F1
:1014F0000E94B30B3A94F4CFF50127FC859127FEA7
:1015000081915F01B70190E00E94B30B31103A94D2
:10151000F1E04F1A51084114510471F7E5C08436C7
:1015200011F0893639F5F80127FF07C06081718114
:10153000828193810C5F1F4F08C060817181072EEB
:10154000000C880B990B0E5F1F4F2F76722E97FFA2
:1015500009C090958095709561957F4F8F4F9F4FF3
:101560002068722E2AE030E0A4010E94EB0BA82E26
:10157000A81844C0853729F42F7EB22E2AE030E027
:1015800025C0F22FF97FBF2E8F36C1F018F48835B1
:1015900079F0B4C0803719F0883721F0AFC02F2F11
:1015A0002061B22EB4FE0DC08B2D8460B82E09C010
:1015B00024FF0AC09F2F9660B92E06C028E030E0B5
:1015C00005C020E130E002C020E132E0F801B7FEC2
:1015D00007C060817181828193810C5F1F4F06C0BB
:1015E0006081718180E090E00E5F1F4FA4010E9436
:1015F000EB0BA82EA818FB2DFF777F2E76FE0BC0D5
:10160000372D3E7FA51450F474FE0AC072FC08C04A
:10161000372D3E7E05C0BA2C372D03C0BA2C01C031
:10162000B52C34FF0DC0FE01EA0DF11D8081803321
:1016300011F4397E09C032FF06C0B394B39404C0DC
:10164000832F867809F0B39433FD13C030FF06C0B2
:101650005A2CB31418F4530C5B18B32CB31468F45D
:10166000B70180E290E03C870E94B30BB3943C85C5
:10167000F5CFB31410F43B1801C0312C34FF12C065
:10168000B70180E390E03C870E94B30B3C8532FFBA
:1016900017C031FD03C088E790E002C088E590E004
:1016A000B7010CC0832F867859F031FF02C08BE25E
:1016B00001C080E237FD8DE2B70190E00E94B30BDC
:1016C000A51438F4B70180E390E00E94B30B5A945C
:1016D000F7CFAA94F401EA0DF11D8081B70190E0E3
:1016E0000E94B30BA110F5CF332009F451CEB701FE
:1016F00080E290E00E94B30B3A94F6CFF701868126
:10170000978102C08FEF9FEF2C960FB6F894DEBF43
:101710000FBECDBFDF91CF911F910F91FF90EF9042
:10172000DF90CF90BF90AF909F908F907F906F9001
:101730005F904F903F902F900895FC01059061506D
:1017400070400110D8F7809590958E0F9F1F0895D7
:10175000FC016150704001900110D8F78095909580
:101760008E0F9F1F08950F931F93CF93DF93FB015D
:10177000238121FD03C08FEF9FEF28C022FF16C0F9
:1017800046815781248135814217530744F4A08153
:10179000B1819D012F5F3F4F318320838C93268140
:1017A00037812F5F3F4F3783268310C0EB01092F0E
:1017B000182F0084F185E02D1995892BE1F68E8193
:1017C0009F8101969F838E83812F902FDF91CF91F0
:1017D0001F910F910895FA01AA27283051F1203165
:1017E00081F1E8946F936E7F6E5F7F4F8F4F9F4FB5
:1017F000AF4FB1E03ED0B4E03CD0670F781F891FF7
:101800009A1FA11D680F791F8A1F911DA11D6A0FC4
:10181000711D811D911DA11D20D009F468943F9177
:101820002AE0269F11243019305D3193DEF6CF0176
:101830000895462F4770405D4193B3E00FD0C9F73C
:10184000F6CF462F4F70405D4A3318F0495D31FDA9
:101850004052419302D0A9F7EACFB4E0A6959795FC
:10186000879577956795BA95C9F7009761057105D2
:1018700008959B01AC010A2E06945795479537951C
:101880002795BA95C9F7620F731F841F951FA01D76
:061890000895F894FFCF5B
:10189600000083420000A6C20000904100808CC375
:1018A600000000020000000039010000000068008E
:1018B600414343454C45524F4D4554524F202564B4
:1018C600207C20593A202564207C205A3A20256421
:1018D6000A54454D50455241545552413A202564CB
:1018E600C2B0430A4749524F53434F50494F2058BD
:1018F6003A2564207C20593A2564207C205A3A25D2
:10190600640A003E2025642025642025640A0045DB
:1019160072726F7265206E656C6C61207374617291
:1019260074004572726F726520696E76696F205316
:101936004C412B57004572726F726520696E76694D
:101946006F20534C412B52006572726F726520698D
:0A1956006E76696F20646174610011
:040000030000033ABC
:00000001FF
