:100000000C9474000C9495000C9495000C9495003D
:100010000C9495000C9495000C9495000C9495000C
:100020000C9495000C9495000C9495000C949500FC
:100030000C9495000C9495000C9495000C949500EC
:100040000C9495000C9495000C9495000C949500DC
:100050000C9495000C9495000C9495000C949500CC
:100060000C9495000C9495000C9495000C949500BC
:100070000C9495000C9495000C9495000C949500AC
:100080000C9495000C9495000C9495000C9495009C
:100090000C9495000C9495000C9495000C9495008C
:1000A0000C9495000C9495000C9495000C9495007C
:1000B0000C9495000C9495000C9495000C9495006C
:1000C0000C9495000C9495000C9495000C9495005C
:1000D0000C9495000C9495000C9495000C9495004C
:1000E0000C9495000C94970011241FBECFEFD1E221
:1000F000DEBFCDBF00E00CBF12E0A0E0B2E0EEEC4E
:10010000F0E100E00BBF02C007900D92A23DB107E5
:10011000D9F722E0A2EDB2E001C01D92A63EB207DF
:10012000E1F70E94A7020C9465080C9400008A3045
:1001300049F09091C00095FFFCCF8093C60080E00D
:1001400090E008959091C00095FFFCCF9DE09093C2
:10015000C600EFCF9093C5008093C40086E08093E3
:10016000C20088E98093C10008959091C00095FF76
:10017000FCCF8093C60008958091C00087FFFCCF1C
:100180008091C60008958091C000881F8827881F2D
:100190000895FC012081222351F031969091C000F6
:1001A00095FFFCCF2093C60021912111F7CF089530
:1001B00080E092E09093E3028093E2021092C50007
:1001C00082E38093C40086E08093C20088E9809334
:1001D000C1000895599A589AE9EBF0E080818E7F2A
:1001E000808380818D7F808388E48093B80085E45C
:1001F0008093BC00089594EA9093BC009091BC0059
:1002000097FFFCCF9091B900987F9830C9F4880F80
:10021000682B6093BB0084E88093BC008091B90098
:10022000887F8032A9F08091B900887F803381F087
:100230008091BC0087FFFCCF8091B900887F089532
:1002400086E892E00E948E058091B900887F08952B
:1002500089E992E00E948E058091B900887F089517
:1002600094EA9093BC009091BC0097FFFCCF9091D2
:10027000B900987F9031C9F4880F682B6093BB0058
:1002800084E88093BC008091B900887F8032A9F017
:100290008091B900887F803381F08091BC0087FF16
:1002A000FCCF8091B900887F089586E892E00E9493
:1002B0008E058091B900887F08958CEA92E00E94B3
:1002C0008E058091B900887F08958093BB0084E8F3
:1002D0008093BC008091BC0087FFFCCF8091B90067
:1002E000887F883221F08FEB92E00E948E0580910A
:1002F000B900887F08951F93CF93DF931F92CDB7E6
:10030000DEB7142F94EA9093BC009091BC0097FF45
:10031000FCCF9091B900987F983009F04EC090E0E2
:10032000880F991F8093BB0084E88093BC00809164
:10033000B900887F803209F449C08091B900887F74
:10034000803309F443C08091BC0087FFFCCF8091CB
:10035000B9006093BB0084E88093BC008091BC002E
:1003600087FFFCCF8091B900887F883221F08FEB26
:1003700092E00E948E058091B9001093BB0084E842
:100380008093BC008091BC0087FFFCCF8091B900B6
:10039000887F883221F08FEB92E00E948E05809159
:1003A000B90084E98093BC008091BC0084FDFCCF3F
:1003B0000F90DF91CF911F91089586E892E06983B5
:1003C0000E948E058091B9006981C3CF89E992E0CE
:1003D00069830E948E058091B9006981BACF84EC4F
:1003E0008093BC008091BC0087FFFCCF8091BB0054
:1003F000089584E88093BC008091BC0087FFFCCF07
:100400008091BB00089584E98093BC008091BC007A
:1004100084FDFCCF08951F93CF93DF931F92CDB738
:10042000DEB7182F84EA8093BC009091BC0097FF40
:10043000FCCF8091B900887F883009F06FC0812F90
:1004400090E0880F991F8093BB0084E88093BC00E4
:100450008091B900887F803209F469C08091B90029
:10046000887F803309F463C09091BC0097FFFCCF74
:100470008091B9006093BB0084E88093BC009091A8
:10048000BC0097FFFCCF8091B900887F883221F0B3
:100490008FEB92E00E948E058091B90084EA8093F0
:1004A000BC009091BC0097FFFCCF8091B900887F81
:1004B000803169F5812F880F81608093BB0084E8CB
:1004C0008093BC008091B900887F8032C9F180910F
:1004D000B900887F8033A1F18091BC0087FFFCCFF9
:1004E0008091B90084E88093BC008091BC0087FFB4
:1004F000FCCF8091BB0094E99093BC009091BC002C
:1005000094FDFCCF0F90DF91CF911F91089586E865
:1005100092E00E948E058091B900E4CF86E892E0D7
:1005200069830E948E058091B9006981A3CF89E912
:1005300092E069830E948E058091B90069819ACF0B
:100540008CEA92E00E948E058091B900CBCFDF92B9
:10055000EF92FF920F931F93CF93DF930E94D800E7
:1005600080E192E00E948E050E94EA0087E192E01D
:100570000E948E0540E06BE688E60E947B01C8E899
:10058000D3E1AFE1EA2EA2E0FA2E01E712E06BE33D
:1005900088E60E940B02D82E6CE388E60E940B02CC
:1005A0002D2D30E0322F2227282B3093DF0220938D
:1005B000DE026DE388E60E940B02D82E6EE388E629
:1005C0000E940B022D2D30E0322F2227282B309352
:1005D000D5022093D4026FE388E60E940B02D82E46
:1005E00060E488E60E940B022D2D30E0322F222796
:1005F000282B3093D7022093D60261E488E60E942C
:100600000B02D82E62E488E60E940B022D2D30E00A
:10061000322F2227282B3093DB022093DA0263E467
:1006200088E60E940B02D82E64E488E60E940B0242
:100630002D2D30E0322F2227282B3093D302209308
:10064000D20265E488E60E940B02D82E66E488E6B2
:100650000E940B022D2D30E0322F2227282B3093C1
:10066000D9022093D80267E488E60E940B02D82EB4
:1006700068E488E60E940B022D2D30E0322F2227FD
:10068000A901482BCA019093DD028093DC029F935D
:100690008F938091D9028F938091D8028F9380910C
:1006A000D3028F938091D2028F936091DA0270917E
:1006B000DB02072E000C880B990B0E94E80420E057
:1006C00030E04AEA53E40E943E0428EB3EE142E176
:1006D00052E40E94D2030E94B0047F936F938091F2
:1006E000D7028F938091D6028F938091D5028F93FA
:1006F0008091D4028F938091DF028F938091DE02EC
:100700008F93FF92EF920E9474058091DD028F9388
:100710008091DC028F938091D9028F938091D802CF
:100720008F938091D3028F938091D2028F93809187
:10073000D7028F938091D6028F938091D5028F93A9
:100740008091D4028F938091DF028F938091DE029B
:100750008F931F930F930E9474058AE090E00E948C
:1007600088055FEF89E698E1515080409040E1F7BD
:1007700000C0000021974DB75EB7425E5F4F0FB6D5
:10078000F8945EBF0FBE4DBF209709F000CF80E008
:1007900090E0DF91CF911F910F91FF90EF90DF904C
:1007A00008955058BB27AA270E94E9030C943A05E4
:1007B0000E942C0538F00E94330520F039F49F3F49
:1007C00019F426F40C9429050EF4E095E7FB0C943B
:1007D0002305E92F0E944B0558F3BA1762077307E8
:1007E0008407950720F079F4A6F50C946D050EF4B6
:1007F000E0950B2EBA2FA02D0B01B90190010C0131
:10080000CA01A0011124FF27591B99F0593F50F448
:10081000503E68F11A16F040A22F232F342F4427A0
:10082000585FF3CF469537952795A795F040539598
:10083000C9F77EF41F16BA0B620B730B840BBAF068
:100840009150A1F0FF0FBB1F661F771F881FC2F7D3
:100850000EC0BA0F621F731F841F48F487957795E7
:100860006795B795F7959E3F08F0B0CF9395880FA1
:1008700008F09927EE0F9795879508950E945204E6
:100880000C943A050E94330558F00E942C0540F064
:1008900029F45F3F29F00C94230551110C946E0547
:1008A0000C9429050E944B0568F39923B1F3552355
:1008B00091F3951B550BBB27AA2762177307840773
:1008C00038F09F5F5F4F220F331F441FAA1FA9F309
:1008D00035D00E2E3AF0E0E832D091505040E695F7
:1008E000001CCAF72BD0FE2F29D0660F771F881F58
:1008F000BB1F261737074807AB07B0E809F0BB0B4B
:10090000802DBF01FF2793585F4F3AF09E3F51055E
:1009100078F00C9423050C946E055F3FE4F3983E49
:10092000D4F3869577956795B795F7959F5FC9F747
:10093000880F911D9695879597F90895E1E0660FC8
:10094000771F881FBB1F621773078407BA0720F041
:10095000621B730B840BBA0BEE1F88F7E0950895AA
:100960000E94B7046894B1110C946E0508950E941A
:10097000530588F09F5798F0B92F9927B751B0F0D9
:10098000E1F0660F771F881F991F1AF0BA95C9F713
:1009900014C0B13091F00E946D05B1E008950C943F
:1009A0006D05672F782F8827B85F39F0B93FCCF3F2
:1009B000869577956795B395D9F73EF49095809590
:1009C000709561957F4F8F4F9F4F0895E89409C0B0
:1009D00097FB3EF490958095709561957F4F8F4F72
:1009E0009F4F9923A9F0F92F96E9BB279395F69588
:1009F000879577956795B795F111F8CFFAF4BB0F06
:100A000011F460FF1BC06F5F7F4F8F4F9F4F16C069
:100A1000882311F096E911C0772321F09EE8872FF3
:100A2000762F05C0662371F096E8862F70E060E0AF
:100A30002AF09A95660F771F881FDAF7880F969528
:100A4000879597F9089597F99F6780E870E060E0CF
:100A500008959FEF80EC089500240A941616170657
:100A600018060906089500240A941216130614069F
:100A700005060895092E0394000C11F4882352F002
:100A8000BB0F40F4BF2B11F460FF04C06F5F7F4FBA
:100A90008F4F9F4F089557FD9058440F551F59F0A1
:100AA0005F3F71F04795880F97FB991F61F09F3F5B
:100AB00079F087950895121613061406551FF2CF84
:100AC0004695F1DF08C0161617061806991FF1CFD4
:100AD00086957105610508940895E894BB276627FB
:100AE0007727CB0197F90895CF93DF93CDB7DEB782
:100AF000AE014A5F5F4FFA0161917191AF01809140
:100B0000E2029091E3020E94BE05DF91CF91089529
:100B10006091E2027091E3020C94CF070F931F9350
:100B2000CF93DF93E091E202F091E302238121FF72
:100B30001BC08C01D0E0C0E0F80181918F01609171
:100B4000E2027091E302DB011896ED91FC91199796
:100B5000882331F01995892B79F3DFEFCFEFECCFB4
:100B60008AE01995892B19F08FEF9FEF02C08D2F26
:100B70009C2FDF91CF911F910F9108952F923F925B
:100B80004F925F926F927F928F929F92AF92BF929D
:100B9000CF92DF92EF92FF920F931F93CF93DF9349
:100BA000CDB7DEB72C970FB6F894DEBF0FBECDBF22
:100BB0007C016B018A01FC0117821682838181FF0F
:100BC000BDC1CE0101964C01F7019381F60193FD61
:100BD000859193FF81916F01882309F4ABC1853220
:100BE00039F493FD859193FF81916F01853229F44A
:100BF000B70190E00E94CF07E7CF512C312C20E0C5
:100C00002032A0F48B3269F030F4803259F0833214
:100C100069F420612CC08D3239F0803339F42160C1
:100C200026C02260246023C0286021C027FD27C081
:100C300030ED380F3A3078F426FF06C0FAE05F9EB8
:100C4000300D1124532E13C08AE0389E300D11242C
:100C5000332E20620CC08E3221F426FD6BC120643D
:100C600006C08C3611F4206802C0883641F4F601C3
:100C700093FD859193FF81916F018111C1CF982FD1
:100C80009F7D9554933028F40C5F1F4FFFE3F98349
:100C90000DC0833631F0833771F0833509F05BC0C6
:100CA00022C0F801808189830E5F1F4F4424439442
:100CB000512C540115C03801F2E06F0E711CF8017F
:100CC000A080B18026FF03C0652D70E002C06FEFE9
:100CD0007FEFC5012C870E94C4072C0183012C855E
:100CE0002F77222E17C03801F2E06F0E711CF80129
:100CF000A080B18026FF03C0652D70E002C06FEFB9
:100D00007FEFC5012C870E94B9072C012C85206834
:100D1000222E830123FC1BC0832D90E04816590628
:100D2000B0F4B70180E290E00E94CF073A94F4CF8C
:100D3000F50127FC859127FE81915F01B70190E0C5
:100D40000E94CF0731103A94F1E04F1A5108411434
:100D5000510471F7E5C0843611F0893639F5F80190
:100D600027FF07C060817181828193810C5F1F4FD3
:100D700008C060817181072E000C880B990B0E5FF3
:100D80001F4F2F76722E97FF09C090958095709512
:100D900061957F4F8F4F9F4F2068722E2AE030E081
:100DA000A4010E940708A82EA81844C0853729F47A
:100DB0002F7EB22E2AE030E025C0F22FF97FBF2E21
:100DC0008F36C1F018F4883579F0B4C0803719F047
:100DD000883721F0AFC02F2F2061B22EB4FE0DC096
:100DE0008B2D8460B82E09C024FF0AC09F2F966007
:100DF000B92E06C028E030E005C020E130E002C096
:100E000020E132E0F801B7FE07C060817181828184
:100E100093810C5F1F4F06C06081718180E090E07C
:100E20000E5F1F4FA4010E940708A82EA818FB2DD3
:100E3000FF777F2E76FE0BC0372D3E7FA51450F432
:100E400074FE0AC072FC08C0372D3E7E05C0BA2C65
:100E5000372D03C0BA2C01C0B52C34FF0DC0FE01E4
:100E6000EA0DF11D8081803311F4397E09C032FF13
:100E700006C0B394B39404C0832F867809F0B3946A
:100E800033FD13C030FF06C05A2CB31418F4530CB2
:100E90005B18B32CB31468F4B70180E290E03C8790
:100EA0000E94CF07B3943C85F5CFB31410F43B18E0
:100EB00001C0312C34FF12C0B70180E390E03C87C1
:100EC0000E94CF073C8532FF17C031FD03C088E781
:100ED00090E002C088E590E0B7010CC0832F8678CF
:100EE00059F031FF02C08BE201C080E237FD8DE294
:100EF000B70190E00E94CF07A51438F4B70180E352
:100F000090E00E94CF075A94F7CFAA94F401EA0D1B
:100F1000F11D8081B70190E00E94CF07A110F5CFAD
:100F2000332009F451CEB70180E290E00E94CF0750
:100F30003A94F6CFF7018681978102C08FEF9FEF39
:100F40002C960FB6F894DEBF0FBECDBFDF91CF91C8
:100F50001F910F91FF90EF90DF90CF90BF90AF90D7
:100F60009F908F907F906F905F904F903F902F90C9
:100F70000895FC010590615070400110D8F78095EC
:100F800090958E0F9F1F0895FC0161507040019055
:100F90000110D8F7809590958E0F9F1F08950F939D
:100FA0001F93CF93DF93FB01238121FD03C08FEFBC
:100FB0009FEF28C022FF16C04681578124813581CA
:100FC0004217530744F4A081B1819D012F5F3F4F29
:100FD000318320838C93268137812F5F3F4F378366
:100FE000268310C0EB01092F182F0084F185E02D16
:100FF0001995892BE1F68E819F8101969F838E83BF
:10100000812F902FDF91CF911F910F910895FA01B9
:10101000AA27283051F1203181F1E8946F936E7F37
:101020006E5F7F4F8F4F9F4FAF4FB1E03ED0B4E028
:101030003CD0670F781F891F9A1FA11D680F791F69
:101040008A1F911DA11D6A0F711D811D911DA11D7A
:1010500020D009F468943F912AE0269F112430198A
:10106000305D3193DEF6CF010895462F4770405D25
:101070004193B3E00FD0C9F7F6CF462F4F70405DD4
:101080004A3318F0495D31FD4052419302D0A9F72F
:10109000EACFB4E0A6959795879577956795BA9529
:1010A000C9F700976105710508959B01AC010A2EEF
:1010B00006945795479537952795BA95C9F7620FC6
:0E10C000731F841F951FA01D0895F894FFCF85
:1010CE000000000200000000970000000000680011
:1010DE00696E697A696F00537665676C6961004164
:1010EE004343454C45524F4D4554524F20256420A5
:1010FE007C20593A202564207C205A3A2025640A07
:10110E0054454D50455241545552413A2025642084
:10111E00430A4749524F53434F50494F20583A259F
:10112E0064207C20593A2564207C205A3A25640A92
:10113E00003E20256420256420256420256420257A
:10114E00642025640A004572726F7265206E656CAC
:10115E006C61207374617274004572726F726520D7
:10116E00696E76696F20534C412B57004572726F32
:10117E00726520696E76696F20534C412B52006563
:10118E0072726F726520696E76696F206461746128
:02119E0000004F
:04000003000001F602
:00000001FF
