:100000000C9474000C9495000C9495000C9495003D
:100010000C9495000C9495000C9495000C9495000C
:100020000C9495000C9495000C9495000C949500FC
:100030000C9495000C9495000C9495000C949500EC
:100040000C9495000C9495000C9495000C949500DC
:100050000C9495000C9495000C9495000C949500CC
:100060000C9495000C9495000C9495000C949500BC
:100070000C9495000C9495000C9495000C949500AC
:100080000C9495000C9495000C9495000C9495009C
:100090000C9495000C9495000C9495000C9495008C
:1000A0000C9495000C9495000C9495000C9495007C
:1000B0000C9495000C9495000C9495000C9495006C
:1000C0000C9495000C9495000C9495000C9495005C
:1000D0000C9495000C9495000C9495000C9495004C
:1000E0000C9495000C94970011241FBECFEFD1E221
:1000F000DEBFCDBF00E00CBF12E0A0E0B2E0E4E361
:10010000FCE000E00BBF02C007900D92A636B107DD
:10011000D9F722E0A6E6B2E001C01D92AC36B207E4
:10012000E1F70E9469010C9418060C9400008A30D3
:1001300049F09091C00095FFFCCF8093C60080E00D
:1001400090E008959091C00095FFFCCF9DE09093C2
:10015000C600EFCF9093C5008093C40086E08093E3
:10016000C20088E98093C10008959091C00095FF76
:10017000FCCF8093C60008958091C00087FFFCCF1C
:100180008091C60008958091C000881F8827881F2D
:100190000895FC012081222351F031969091C000F6
:1001A00095FFFCCF2093C60021912111F7CF089530
:1001B00080E092E090936902809368021092C500FB
:1001C00082E38093C40086E08093C20088E9809334
:1001D000C100089588E48093B800089584EA80936C
:1001E000BC008091BC0087FFFCCF8091B900887F64
:1001F000883021F08FE192E00C944103089584EA65
:100200008093BC008091BC0087FFFCCF8091B90037
:10021000887F803121F08CE292E00C9441030895B4
:1002200084E98093BC0008958091B900887F90E0B4
:1002300008958093BB0084E88093BC008091BC004B
:1002400087FFFCCF08958093BB0084E88093BC00B7
:100250008091BC0087FFFCCF8091B900982F987FD8
:10026000983339F0807F803421F082E492E00C945E
:10027000410308958093BB0084E88093BC00809183
:10028000BC0087FFFCCF8091B900982F987F887DB4
:10029000883131F0903221F084E592E00C944103F2
:1002A000089584EC8093BC008091BC0087FFFCCF54
:1002B0008091BB00089584E88093BC008091BC00CD
:1002C00087FFFCCF8091BB0008958091BB0090E038
:1002D00008950F931F93CF93DF930E94D8000E943D
:1002E000EA000E94EE0080ED0E943A010E94510156
:1002F00081E490E00E9419010E9451010E94FF00D8
:1003000081ED0E9423010E9451010E9465010E941B
:1003100010018EE092E00E94410300E010E01F9384
:100320000F93C3E1D2E0DF93CF930E942D03B80176
:10033000110F880B990B0E94A10220E030E04AEADD
:1003400053E40E942D0228EB3EE142E152E40E9478
:10035000C1019F938F937F936F93DF93CF930E94FD
:100360002D038DB79EB70A960FB6F8949EBF0FBEA9
:100370008DBF80E090E0DF91CF911F910F910895A4
:100380005058BB27AA270E94D8010C94F3020E9460
:10039000E50238F00E94EC0220F039F49F3F19F496
:1003A00026F40C94E2020EF4E095E7FB0C94DC02D8
:1003B000E92F0E94040358F3BA17620773078407F2
:1003C000950720F079F4A6F50C9426030EF4E09539
:1003D0000B2EBA2FA02D0B01B90190010C01CA01FF
:1003E000A0011124FF27591B99F0593F50F4503EAA
:1003F00068F11A16F040A22F232F342F4427585F9C
:10040000F3CF469537952795A795F0405395C9F7B3
:100410007EF41F16BA0B620B730B840BBAF091506B
:10042000A1F0FF0FBB1F661F771F881FC2F70EC00A
:10043000BA0F621F731F841F48F4879577956795DD
:10044000B795F7959E3F08F0B0CF9395880F08F0C9
:100450009927EE0F9795879508950E9441020C9475
:10046000F3020E94EC0258F00E94E50240F029F4E9
:100470005F3F29F00C94DC0251110C9427030C947B
:10048000E2020E94040368F39923B1F3552391F328
:10049000951B550BBB27AA2762177307840738F0F3
:1004A0009F5F5F4F220F331F441FAA1FA9F335D050
:1004B0000E2E3AF0E0E832D091505040E695001C04
:1004C000CAF72BD0FE2F29D0660F771F881FBB1FBE
:1004D000261737074807AB07B0E809F0BB0B802D9C
:1004E000BF01FF2793585F4F3AF09E3F510578F0C8
:1004F0000C94DC020C9427035F3FE4F3983ED4F3A2
:10050000869577956795B795F7959F5FC9F7880F9B
:10051000911D9695879597F90895E1E0660F771FED
:10052000881FBB1F621773078407BA0720F0621B7E
:10053000730B840BBA0BEE1F88F7E0950895E894CF
:1005400009C097FB3EF490958095709561957F4F1B
:100550008F4F9F4F9923A9F0F92F96E9BB279395C9
:10056000F695879577956795B795F111F8CFFAF4D9
:10057000BB0F11F460FF1BC06F5F7F4F8F4F9F4F0A
:1005800016C0882311F096E911C0772321F09EE868
:10059000872F762F05C0662371F096E8862F70E0CE
:1005A00060E02AF09A95660F771F881FDAF7880FA8
:1005B0009695879597F9089597F99F6780E870E079
:1005C00060E008959FEF80EC089500240A941616C9
:1005D000170618060906089500240A941216130631
:1005E000140605060895092E0394000C11F48823BF
:1005F00052F0BB0F40F4BF2B11F460FF04C06F5FDB
:100600007F4F8F4F9F4F089557FD9058440F551FB0
:1006100059F05F3F71F04795880F97FB991F61F084
:100620009F3F79F087950895121613061406551FFB
:10063000F2CF4695F1DF08C0161617061806991F67
:10064000F1CF86957105610508940895E894BB275C
:1006500066277727CB0197F90895CF93DF93CDB71E
:10066000DEB7AE014A5F5F4FFA0161917191AF0150
:1006700080916802909169020E947103DF91CF918D
:1006800008950F931F93CF93DF93E0916802F09149
:100690006902238121FF1BC08C01D0E0C0E0F8017A
:1006A00081918F016091680270916902DB01189657
:1006B000ED91FC911997882331F01995892B79F3E5
:1006C000DFEFCFEFECCF8AE01995892B19F08FEF90
:1006D0009FEF02C08D2F9C2FDF91CF911F910F9123
:1006E00008952F923F924F925F926F927F928F92D6
:1006F0009F92AF92BF92CF92DF92EF92FF920F93B1
:100700001F93CF93DF93CDB7DEB72C970FB6F89436
:10071000DEBF0FBECDBF7C016B018A01FC011782D9
:100720001682838181FFBDC1CE0101964C01F70184
:100730009381F60193FD859193FF81916F01882349
:1007400009F4ABC1853239F493FD859193FF819112
:100750006F01853229F4B70190E00E948205E7CF4E
:10076000512C312C20E02032A0F48B3269F030F48F
:10077000803259F0833269F420612CC08D3239F017
:10078000803339F4216026C02260246023C02860B1
:1007900021C027FD27C030ED380F3A3078F426FF0E
:1007A00006C0FAE05F9E300D1124532E13C08AE07C
:1007B000389E300D1124332E20620CC08E3221F46D
:1007C00026FD6BC1206406C08C3611F4206802C07F
:1007D000883641F4F60193FD859193FF81916F0175
:1007E0008111C1CF982F9F7D9554933028F40C5FD1
:1007F0001F4FFFE3F9830DC0833631F0833771F06B
:10080000833509F05BC022C0F801808189830E5FC7
:100810001F4F44244394512C540115C03801F2E079
:100820006F0E711CF801A080B18026FF03C0652DFA
:1008300070E002C06FEF7FEFC5012C870E94770543
:100840002C0183012C852F77222E17C03801F2E06E
:100850006F0E711CF801A080B18026FF03C0652DCA
:1008600070E002C06FEF7FEFC5012C870E946C051E
:100870002C012C852068222E830123FC1BC0832D94
:1008800090E048165906B0F4B70180E290E00E946B
:1008900082053A94F4CFF50127FC859127FE8191DA
:1008A0005F01B70190E00E94820531103A94F1E0B7
:1008B0004F1A51084114510471F7E5C0843611F004
:1008C000893639F5F80127FF07C06081718182817F
:1008D00093810C5F1F4F08C060817181072E000C4F
:1008E000880B990B0E5F1F4F2F76722E97FF09C052
:1008F00090958095709561957F4F8F4F9F4F2068A1
:10090000722E2AE030E0A4010E94BA05A82EA81891
:1009100044C0853729F42F7EB22E2AE030E025C06E
:10092000F22FF97FBF2E8F36C1F018F4883579F099
:10093000B4C0803719F0883721F0AFC02F2F206165
:10094000B22EB4FE0DC08B2D8460B82E09C024FFDA
:100950000AC09F2F9660B92E06C028E030E005C07F
:1009600020E130E002C020E132E0F801B7FE07C02C
:1009700060817181828193810C5F1F4F06C060810D
:10098000718180E090E00E5F1F4FA4010E94BA05C4
:10099000A82EA818FB2DFF777F2E76FE0BC0372DD3
:1009A0003E7FA51450F474FE0AC072FC08C0372DB7
:1009B0003E7E05C0BA2C372D03C0BA2C01C0B52C21
:1009C00034FF0DC0FE01EA0DF11D8081803311F46A
:1009D000397E09C032FF06C0B394B39404C0832F9C
:1009E000867809F0B39433FD13C030FF06C05A2C4B
:1009F000B31418F4530C5B18B32CB31468F4B70198
:100A000080E290E03C870E948205B3943C85F5CF5C
:100A1000B31410F43B1801C0312C34FF12C0B701DD
:100A200080E390E03C870E9482053C8532FF17C03E
:100A300031FD03C088E790E002C088E590E0B7018F
:100A40000CC0832F867859F031FF02C08BE201C0C1
:100A500080E237FD8DE2B70190E00E948205A51487
:100A600038F4B70180E390E00E9482055A94F7CFF2
:100A7000AA94F401EA0DF11D8081B70190E00E9473
:100A80008205A110F5CF332009F451CEB70180E2E1
:100A900090E00E9482053A94F6CFF7018681978113
:100AA00002C08FEF9FEF2C960FB6F894DEBF0FBEFB
:100AB000CDBFDF91CF911F910F91FF90EF90DF900D
:100AC000CF90BF90AF909F908F907F906F905F90EE
:100AD0004F903F902F900895FC0105906150704019
:100AE0000110D8F7809590958E0F9F1F0895FC01F7
:100AF0006150704001900110D8F7809590958E0F4D
:100B00009F1F08950F931F93CF93DF93FB012381C2
:100B100021FD03C08FEF9FEF28C022FF16C0468142
:100B20005781248135814217530744F4A081B18154
:100B30009D012F5F3F4F318320838C932681378126
:100B40002F5F3F4F3783268310C0EB01092F182FEB
:100B50000084F185E02D1995892BE1F68E819F8126
:100B600001969F838E83812F902FDF91CF911F91CC
:100B70000F910895FA01AA27283051F1203181F10F
:100B8000E8946F936E7F6E5F7F4F8F4F9F4FAF4F95
:100B9000B1E03ED0B4E03CD0670F781F891F9A1FA8
:100BA000A11D680F791F8A1F911DA11D6A0F711D5C
:100BB000811D911DA11D20D009F468943F912AE068
:100BC000269F11243019305D3193DEF6CF01089550
:100BD000462F4770405D4193B3E00FD0C9F7F6CF81
:100BE000462F4F70405D4A3318F0495D31FD405249
:100BF000419302D0A9F7EACFB4E0A69597958795DF
:100C000077956795BA95C9F70097610571050895BD
:100C10009B01AC010A2E0694579547953795279569
:100C2000BA95C9F7620F731F841F951FA01D089501
:040C3000F894FFCF66
:100C34000000000200000000970000000000737430
:100C44006F7000616975746F202D3E202564006506
:100C540072726F7265207374617274006572726F60
:100C640072652072657065617465645F7374617226
:100C740074006572726F7265207772697465534C83
:100C8400415F52006572726F726520777269746594
:060C9400534C415F5700C4
:04000003000001DC1C
:00000001FF
