:100000000C948B000C94AC000C94AC000C94AC00E1
:100010000C94AC000C94AC000C94AC000C94AC00B0
:100020000C94AC000C94AC000C94AC000C94AC00A0
:100030000C94AC000C94AC000C94AC000C94AC0090
:100040000C94AC000C94AC000C94AC000C94AC0080
:100050000C94AC000C94AC000C94AC000C94AC0070
:100060000C94AC000C94AC000C94AC000C94AC0060
:100070000C94AC000C94AC000C94AC000C94AC0050
:100080000C94AC000C94AC000C94AC000C94AC0040
:100090000C94AC000C94AC000C94AC000C94AC0030
:1000A0000C94AC000C94AC000C94AC000C94AC0020
:1000B0000C94AC000C94AC000C94AC000C94AC0010
:1000C0000C94AC000C94AC000C94AC000C94AC0000
:1000D0000C94AC000C94AC000C94AC000C94AC00F0
:1000E0000C94AC00084AD73B3BCE016E84BCBFFDEC
:1000F000C12F3D6C74319ABD56833DDA3D00C77FF8
:1001000011BED9E4BB4C3E916BAAAABE0000008090
:100110003F000C941C0111241FBECFEFD1E2DEBFC3
:10012000CDBF00E00CBF12E0A0E0B2E0E2E5F7E1F5
:1001300000E00BBF02C007900D92A239B107D9F7BA
:1001400022E0A2E9B2E001C01D92AC3AB207E1F7A9
:100150000E942C030C94A70B0C9400006F927F92CA
:100160008F929F92AF92BF92CF92DF92EF92FF92C7
:100170000F931F93CF9304EF11E0E12CF12CC12CCE
:10018000D12CA12CB12C63E488E60E949002682E49
:1001900064E488E60E949002712C762C6624682A1A
:1001A00065E488E60E949002882E66E488E60E9454
:1001B0009002912C982C8824882A67E488E60E9473
:1001C0009002C82F68E488E60E949002A60CB71C33
:1001D000C80CD91C2C2F30E0322F2227282BE20EFE
:1001E000F31E0150110979F624EF31E0C501B90180
:1001F0000E9498057093070260930602C601B90138
:100200000E9498057093050260930402C701B9012A
:100210000E9498057093030260930202CF911F9190
:100220000F91FF90EF90DF90CF90BF90AF909F9095
:100230008F907F906F9008958A3049F09091C00020
:1002400095FFFCCF8093C60080E090E008959091E8
:10025000C00095FFFCCF9DE09093C600EFCF909338
:10026000C5008093C40086E08093C20088E9809333
:10027000C10008959091C00095FFFCCF8093C60007
:1002800008958091C00087FFFCCF8091C60008953B
:100290008091C000881F8827881F0895FC01208155
:1002A000222351F031969091C00095FFFCCF20930E
:1002B000C60021912111F7CF089588E092E0909334
:1002C000A9028093A8021092C50082E38093C40023
:1002D00086E08093C20088E98093C1000895599A0E
:1002E000589AE9EBF0E080818E7F808380818D7F5A
:1002F000808388E48093B80085E48093BC000895EF
:1003000094EA9093BC009091BC0097FFFCCF909131
:10031000B900987F9830C9F4880F682B6093BB00B0
:1003200084E88093BC008091B900887F8032A9F076
:100330008091B900887F803381F08091BC0087FF75
:10034000FCCF8091B900887F089587E492E00E94F5
:10035000D0088091B900887F08958AE592E00E94D4
:10036000D0088091B900887F089594EA9093BC00EA
:100370009091BC0097FFFCCF9091B900987F90318D
:10038000C9F4880F682B6093BB0084E88093BC009D
:100390008091B900887F8032A9F08091B900887F70
:1003A000803381F08091BC0087FFFCCF8091B90041
:1003B000887F089587E492E00E94D0088091B90078
:1003C000887F08958DE692E00E94D0088091B90060
:1003D000887F08958093BB0084E88093BC0080915F
:1003E000BC0087FFFCCF8091B900887F883221F064
:1003F00080E892E00E94D0088091B900887F08953B
:100400001F93CF93DF931F92CDB7DEB7142F94EADB
:100410009093BC009091BC0097FFFCCF9091B900E5
:10042000987F983009F04EC090E0880F991F809314
:10043000BB0084E88093BC008091B900887F803243
:1004400009F449C08091B900887F803309F443C022
:100450008091BC0087FFFCCF8091B9006093BB0006
:1004600084E88093BC008091BC0087FFFCCF809122
:10047000B900887F883221F080E892E00E94D0089D
:100480008091B9001093BB0084E88093BC008091F8
:10049000BC0087FFFCCF8091B900887F883221F0B3
:1004A00080E892E00E94D0088091B90084E98093AE
:1004B000BC008091BC0084FDFCCF0F90DF91CF91F8
:1004C0001F91089587E492E069830E94D00880918B
:1004D000B9006981C3CF8AE592E069830E94D008A0
:1004E0008091B9006981BACF84EC8093BC0080917F
:1004F000BC0087FFFCCF8091BB00089584E8809307
:10050000BC008091BC0087FFFCCF8091BB000895A8
:1005100084E98093BC008091BC0084FDFCCF0895E9
:100520001F93CF93DF931F92CDB7DEB7182F84EAC6
:100530008093BC009091BC0097FFFCCF8091B900E4
:10054000887F883009F06FC0812F90E0880F991F55
:100550008093BB0084E88093BC008091B900887FC1
:10056000803209F469C08091B900887F803309F432
:1005700063C09091BC0097FFFCCF8091B90060935D
:10058000BB0084E88093BC009091BC0097FFFCCF37
:100590008091B900887F883221F080E892E00E9443
:1005A000D0088091B90084EA8093BC009091BC008F
:1005B00097FFFCCF8091B900887F803169F5812F4A
:1005C000880F81608093BB0084E88093BC00809199
:1005D000B900887F8032C9F18091B900887F80336B
:1005E000A1F18091BC0087FFFCCF8091B90084E825
:1005F0008093BC008091BC0087FFFCCF8091BB0042
:1006000094E99093BC009091BC0094FDFCCF0F90B6
:10061000DF91CF911F91089587E492E00E94D00866
:100620008091B900E4CF87E492E069830E94D0080A
:100630008091B9006981A3CF8AE592E069830E9425
:10064000D0088091B90069819ACF8DE692E00E942E
:10065000D0088091B900CBCF2F923F924F925F92FA
:100660006F927F928F929F92AF92BF92CF92DF92C2
:10067000EF92FF920F931F93CF93DF93CDB7DEB727
:100680002F970FB6F894DEBF0FBECDBF0E945D015D
:1006900088E192E00E94D0080E946F018FE192E011
:1006A0000E94D00840E06BE688E60E94000287E2E4
:1006B00092E00E94D0080E94AE0086E392E00E9481
:1006C000D008F8E82F2EF3E13F2E6BE388E60E9476
:1006D0009002182F6CE388E60E949002212F30E0F0
:1006E000322F2227282B3093A5022093A4026DE3FA
:1006F00088E60E949002182F6EE388E60E9490021E
:10070000212F30E0322F2227282B3093A302209371
:10071000A2026FE388E60E949002182F60E488E648
:100720000E949002212F30E0322F2227282B309375
:10073000A1022093A00261E488E60E949002182F93
:1007400062E488E60E949002212F30E0322F2227B7
:10075000282B30939F0220939E0263E488E60E9438
:100760009002182F64E488E60E949002212F30E066
:10077000322F2227282B30939D0220939C0265E480
:1007800088E60E949002182F66E488E60E94900294
:10079000212F30E0322F2227282B30939B022093E9
:1007A0009A0267E488E60E949002F82E68E488E6E0
:1007B0000E949002282FE0910002F09101024091E6
:1007C0009C0250919D028091060290910702BA010D
:1007D000681B790BCB01BF010E94840578876F836A
:1007E00070939D0260939C0240919A0250919B02EB
:1007F0008091040290910502DA01A81BB90BCD018A
:10080000BF010E9484058B0170939B0260939A0242
:10081000822F90E09F292091020230910302821BD7
:10082000930BBF010E9484057A83698370939902B8
:10083000609398026091A2027091A30280E090E020
:100840000E9433076B017C016091A0027091A102AC
:1008500080E090E00E9433079B01AC010E94F0070A
:100860002B013C01A7019601C701B6010E94F007C8
:10087000A30192010E94AD050E9463089B01AC0197
:100880006091A4027091A50280E090E02B873C87E4
:100890004D875E870E9433074B015C012B853C85A9
:1008A0004D855E850E942C066B837C838D839E83A1
:1008B000A5019401C501B4010E94F0079B01AC01A0
:1008C000C301B2010E94AD050E9463089B01AC0107
:1008D000C701B6010E942C066B017C016091960253
:1008E00070919702072E000C880B990B0E94350718
:1008F0004B015C012F813885B90180E090E00E94B6
:10090000330720E030E040EF51E40E948B069B016A
:10091000AC01C501B4010E94AD050E94FD062B018A
:100920003C016091940270919502072E000C880B97
:10093000990B0E9435074B015C01B80180E090E003
:100940000E94330720E030E040EF51E40E948B0624
:100950009B01AC01C501B4010E94AC050E94FD06DB
:100960006F83788789879A8760919202709193024A
:10097000072E000C880B990B0E9435074B015C0178
:10098000A981BA81BD0180E090E00E94330720E098
:1009900030E040EF51E40E948B069B01AC01C501A1
:1009A000B4010E94AD050E94FD0669837F876093B4
:1009B000920270939302B201550C880B990B0E941E
:1009C00035072FE832EC45E75FE30E94F0074B0163
:1009D0005C0120E030E044E353E4C701B6010E942B
:1009E000F0072BED3FE049E450E40E948B060E94A3
:1009F000FD06072E000C880B990B0E9435072AE094
:100A000037ED43E25DE30E94F0079B01AC01C501B5
:100A1000B4010E94AD050E94FD06162F072F6093BA
:100A20009602709397022F813885B901330F880B96
:100A3000990B0E9435072FE832EC45E75FE30E94EF
:100A4000F0076B017C0120E030E044E353E46B816C
:100A50007C818D819E810E94F0072BED3FE049E46F
:100A600050E40E948B060E94FD06072E000C880BA6
:100A7000990B0E9435072AE037ED43E25DE30E94BF
:100A8000F0079B01AC01C701B6010E94AD050E94B1
:100A9000FD0660939402709395023F853F93898190
:100AA0008F937F936F930F931F93ABE3B2E0BF934A
:100AB000AF930E94BC08109293021092920231E010
:100AC000231A31080FB6F894DEBF0FBECDBF09F070
:100AD000FCCD80E090E02F960FB6F894DEBF0FBEFD
:100AE000CDBFDF91CF911F910F91FF90EF90DF90DD
:100AF000CF90BF90AF909F908F907F906F905F90BE
:100B00004F903F902F900895AA1BBB1B51E107C047
:100B1000AA1FBB1FA617B70710F0A61BB70B881F8D
:100B2000991F5A95A9F780959095BC01CD0108951C
:100B300097FB072E16F4009407D077FD09D00E948A
:100B4000840507FC05D03EF4909581959F4F08954C
:100B5000709561957F4F08955058BB27AA270E9432
:100B6000C4050C94AE070E94A00738F00E94A707A6
:100B700020F039F49F3F19F426F40C9476070EF414
:100B8000E095E7FB0C947007E92F0E94BF0758F32C
:100B9000BA17620773078407950720F079F4A6F562
:100BA0000C94E1070EF4E0950B2EBA2FA02D0B014B
:100BB000B90190010C01CA01A0011124FF27591BA2
:100BC00099F0593F50F4503E68F11A16F040A22FA8
:100BD000232F342F4427585FF3CF46953795279519
:100BE000A795F0405395C9F77EF41F16BA0B620B18
:100BF000730B840BBAF09150A1F0FF0FBB1F661F5F
:100C0000771F881FC2F70EC0BA0F621F731F841FA1
:100C100048F4879577956795B795F7959E3F08F0C7
:100C2000B0CF9395880F08F09927EE0F9795879589
:100C300008950E94A00760F080E891E009F49EEF1B
:100C40000E94A70728F040E851E071F45EEF0CC065
:100C50000C9476070C94E107E92FE0780E94BF0717
:100C600040F3092E052AB1F326173707480759071D
:100C700038F00E2E07F8E02569F0E025E0640AC0A0
:100C8000EF6307F8009407FADB01B9019D01DC016D
:100C9000CA01AD01EF930E94A2060E94AE070E9416
:100CA0005C065F91552339F02BED3FE049E450FDA0
:100CB00049EC0C94AD050895DF93DD27B92FBF777C
:100CC00040E85FE31616170648075B0718F4D92FAC
:100CD0000E94E8079F938F937F936F930E94A308CE
:100CE000E4EEF0E00E9479070E94AE072F913F9159
:100CF0004F915F910E940308DD2351F09058A2EAC2
:100D00002AED3FE049EC5FE3D0785D270E94C405FF
:100D1000DF910C94AE070E949F060C94AE070E94D0
:100D2000A70758F00E94A00740F029F45F3F29F080
:100D30000C94700751110C94E2070C9476070E94F2
:100D4000BF0768F39923B1F3552391F3951B550B16
:100D5000BB27AA2762177307840738F09F5F5F4F8E
:100D6000220F331F441FAA1FA9F335D00E2E3AF0CD
:100D7000E0E832D091505040E695001CCAF72BD0E5
:100D8000FE2F29D0660F771F881FBB1F2617370736
:100D90004807AB07B0E809F0BB0B802DBF01FF2768
:100DA00093585F4F3AF09E3F510578F00C947007CE
:100DB0000C94E2075F3FE4F3983ED4F38695779571
:100DC0006795B795F7959F5FC9F7880F911D969521
:100DD000879597F90895E1E0660F771F881FBB1F7D
:100DE000621773078407BA0720F0621B730B840B2A
:100DF000BA0BEE1F88F7E09508950E9404076894E7
:100E0000B1110C94E20708950E94C70788F09F571C
:100E100098F0B92F9927B751B0F0E1F0660F771F1E
:100E2000881F991F1AF0BA95C9F714C0B13091F014
:100E30000E94E107B1E008950C94E107672F782F35
:100E40008827B85F39F0B93FCCF3869577956795D9
:100E5000B395D9F73EF490958095709561957F4F45
:100E60008F4F9F4F0895E89409C097FB3EF49095EB
:100E70008095709561957F4F8F4F9F4F9923A9F073
:100E8000F92F96E9BB279395F69587957795679502
:100E9000B795F111F8CFFAF4BB0F11F460FF1BC046
:100EA0006F5F7F4F8F4F9F4F16C0882311F096E9D9
:100EB00011C0772321F09EE8872F762F05C0662387
:100EC00071F096E8862F70E060E02AF09A95660F40
:100ED000771F881FDAF7880F9695879597F90895F9
:100EE00097F99F6780E870E060E008959FEF80ECDD
:100EF0000895DF93CF931F930F93FF92EF92DF92AA
:100F00007B018C01689406C0DA2EEF010E94030871
:100F1000FE01E894A5912591359145915591A6F34F
:100F2000EF010E94C405FE019701A801DA9469F758
:100F3000DF90EF90FF900F911F91CF91DF91089577
:100F400000240A94161617061806090608950024A8
:100F50000A9412161306140605060895092E039422
:100F6000000C11F4882352F0BB0F40F4BF2B11F496
:100F700060FF04C06F5F7F4F8F4F9F4F089557FDF5
:100F80009058440F551F59F05F3F71F04795880FF7
:100F900097FB991F61F09F3F79F08795089512168E
:100FA00013061406551FF2CF4695F1DF08C016163A
:100FB00017061806991FF1CF8695710561050894EB
:100FC0000895E894BB2766277727CB0197F9089502
:100FD0009B01AC0160E070E080E89FE30C948B061D
:100FE0000E9403080C94AE070E94A00738F00E94EC
:100FF000A70720F0952311F00C9470070C94760746
:1010000011240C94E2070E94BF0770F3959FC1F36F
:10101000950F50E0551F629FF001729FBB27F00DA6
:10102000B11D639FAA27F00DB11DAA1F649F6627FB
:10103000B00DA11D661F829F2227B00DA11D621F4A
:10104000739FB00DA11D621F839FA00D611D221F04
:10105000749F3327A00D611D231F849F600D211DE8
:10106000822F762F6A2F11249F5750409AF0F1F06B
:1010700088234AF0EE0FFF1FBB1F661F771F881FD4
:1010800091505040A9F79E3F510580F00C94700795
:101090000C94E2075F3FE4F3983ED4F3869577958E
:1010A0006795B795F795E7959F5FC1F7FE2B880F7A
:1010B000911D9695879597F9089519F416F40C9457
:1010C00076070C94A7080E94C707B8F39923C9F3C1
:1010D000B6F39F57550B87FF0E94B5080024A0E682
:1010E00040EA900180585695979528F4805C660FE9
:1010F000771F881F20F026173707480730F4621B38
:10110000730B840B202931294A2BA6951794079439
:10111000202531254A2758F7660F771F881F20F0B2
:1011200026173707480730F4620B730B840B200D2A
:10113000311D411DA09581F7B901842F9158880F69
:101140009695879508959B01AC010C94F0079F3FFD
:1011500031F0915020F4879577956795B795880F72
:10116000911D9695879597F9089591505040660F77
:10117000771F881FD2F70895CF93DF93CDB7DEB7DF
:10118000AE014A5F5F4FFA0161917191AF018091A9
:10119000A8029091A9020E940009DF91CF910895C1
:1011A0000F931F93CF93DF93E091A802F091A902D0
:1011B000238121FF1BC08C01D0E0C0E0F8018191A8
:1011C0008F016091A8027091A902DB011896ED9140
:1011D000FC911997882331F01995892B79F3DFEF6A
:1011E000CFEFECCF8AE01995892B19F08FEF9FEFA5
:1011F00002C08D2F9C2FDF91CF911F910F910895E9
:101200002F923F924F925F926F927F928F929F9216
:10121000AF92BF92CF92DF92EF92FF920F931F9304
:10122000CF93DF93CDB7DEB72C970FB6F894DEBF20
:101230000FBECDBF7C016B018A01FC0117821682B3
:10124000838181FFBDC1CE0101964C01F7019381DD
:10125000F60193FD859193FF81916F01882309F435
:10126000ABC1853239F493FD859193FF81916F0174
:10127000853229F4B70190E00E94110BE7CF512C81
:10128000312C20E02032A0F48B3269F030F480322F
:1012900059F0833269F420612CC08D3239F08033EB
:1012A00039F4216026C02260246023C0286021C058
:1012B00027FD27C030ED380F3A3078F426FF06C0FE
:1012C000FAE05F9E300D1124532E13C08AE0389E41
:1012D000300D1124332E20620CC08E3221F426FDF5
:1012E0006BC1206406C08C3611F4206802C08836B9
:1012F00041F4F60193FD859193FF81916F01811176
:10130000C1CF982F9F7D9554933028F40C5F1F4FC9
:10131000FFE3F9830DC0833631F0833771F08335F5
:1013200009F05BC022C0F801808189830E5F1F4FE6
:1013300044244394512C540115C03801F2E06F0E3F
:10134000711CF801A080B18026FF03C0652D70E0FC
:1013500002C06FEF7FEFC5012C870E94060B2C01A6
:1013600083012C852F77222E17C03801F2E06F0EF3
:10137000711CF801A080B18026FF03C0652D70E0CC
:1013800002C06FEF7FEFC5012C870E94FB0A2C0182
:101390002C852068222E830123FC1BC0832D90E026
:1013A00048165906B0F4B70180E290E00E94110B94
:1013B0003A94F4CFF50127FC859127FE81915F01D6
:1013C000B70190E00E94110B31103A94F1E04F1AEE
:1013D00051084114510471F7E5C0843611F0893683
:1013E00039F5F80127FF07C06081718182819381FF
:1013F0000C5F1F4F08C060817181072E000C880BA5
:10140000990B0E5F1F4F2F76722E97FF09C0909594
:101410008095709561957F4F8F4F9F4F2068722EFA
:101420002AE030E0A4010E94490BA82EA81844C06D
:10143000853729F42F7EB22E2AE030E025C0F22F26
:10144000F97FBF2E8F36C1F018F4883579F0B4C01B
:10145000803719F0883721F0AFC02F2F2061B22ECE
:10146000B4FE0DC08B2D8460B82E09C024FF0AC0C5
:101470009F2F9660B92E06C028E030E005C020E11D
:1014800030E002C020E132E0F801B7FE07C0608121
:101490007181828193810C5F1F4F06C060817181D1
:1014A00080E090E00E5F1F4FA4010E94490BA82E20
:1014B000A818FB2DFF777F2E76FE0BC0372D3E7FC1
:1014C000A51450F474FE0AC072FC08C0372D3E7E8D
:1014D00005C0BA2C372D03C0BA2C01C0B52C34FF7F
:1014E0000DC0FE01EA0DF11D8081803311F4397EBB
:1014F00009C032FF06C0B394B39404C0832F86782A
:1015000009F0B39433FD13C030FF06C05A2CB31456
:1015100018F4530C5B18B32CB31468F4B70180E2D1
:1015200090E03C870E94110BB3943C85F5CFB31437
:1015300010F43B1801C0312C34FF12C0B70180E316
:1015400090E03C870E94110B3C8532FF17C031FDB3
:1015500003C088E790E002C088E590E0B7010CC0C6
:10156000832F867859F031FF02C08BE201C080E200
:1015700037FD8DE2B70190E00E94110BA51438F4FD
:10158000B70180E390E00E94110B5A94F7CFAA9420
:10159000F401EA0DF11D8081B70190E00E94110B6A
:1015A000A110F5CF332009F451CEB70180E290E0CD
:1015B0000E94110B3A94F6CFF7018681978102C001
:1015C0008FEF9FEF2C960FB6F894DEBF0FBECDBF06
:1015D000DF91CF911F910F91FF90EF90DF90CF900F
:1015E000BF90AF909F908F907F906F905F904F9043
:1015F0003F902F900895FC010590615070400110BC
:10160000D8F7809590958E0F9F1F0895FC0161502B
:10161000704001900110D8F7809590958E0F9F1F14
:1016200008950F931F93CF93DF93FB01238121FD37
:1016300003C08FEF9FEF28C022FF16C0468157815D
:10164000248135814217530744F4A081B1819D0163
:101650002F5F3F4F318320838C93268137812F5F0B
:101660003F4F3783268310C0EB01092F182F0084CA
:10167000F185E02D1995892BE1F68E819F810196E8
:101680009F838E83812F902FDF91CF911F910F9198
:101690000895FA01AA27283051F1203181F1E89408
:1016A0006F936E7F6E5F7F4F8F4F9F4FAF4FB1E055
:1016B0003ED0B4E03CD0670F781F891F9A1FA11D50
:1016C000680F791F8A1F911DA11D6A0F711D811D51
:1016D000911DA11D20D009F468943F912AE0269F16
:1016E00011243019305D3193DEF6CF010895462F75
:1016F0004770405D4193B3E00FD0C9F7F6CF462F56
:101700004F70405D4A3318F0495D31FD40524193BE
:1017100002D0A9F7EACFB4E0A6959795879577957B
:101720006795BA95C9F700976105710508959B0102
:10173000AC010A2E06945795479537952795BA958B
:10174000C9F7620F731F841F951FA01D0895F89499
:02175000FFCFC9
:101752004100ADFF1200E7FE0000000200000000A1
:101762001C01000000006800696E697A696F00530D
:101772007665676C69610043616C69627261746964
:101782006E672E2E2E00646F6E65003E202564204B
:1017920025642025640A004572726F7265206E65A9
:1017A2006C6C61207374617274004572726F726541
:1017B20020696E76696F20534C412B570045727237
:1017C2006F726520696E76696F20534C412B52000F
:1017D2006572726F726520696E76696F20646174DA
:0217E2006100A4
:0400000300000300F6
:00000001FF
